{
  "contractName": "AddressStorage",
  "abi": [
    {
      "constant": true,
      "inputs": [
        {
          "internalType": "bytes32",
          "name": "_key",
          "type": "bytes32"
        }
      ],
      "name": "getAddress",
      "outputs": [
        {
          "internalType": "address",
          "name": "",
          "type": "address"
        }
      ],
      "payable": false,
      "stateMutability": "view",
      "type": "function"
    }
  ],
  "bytecode": "0x608060405234801561001057600080fd5b50610109806100206000396000f3fe6080604052348015600f57600080fd5b506004361060285760003560e01c806321f8a72114602d575b600080fd5b605660048036036020811015604157600080fd5b81019080803590602001909291905050506098565b604051808273ffffffffffffffffffffffffffffffffffffffff1673ffffffffffffffffffffffffffffffffffffffff16815260200191505060405180910390f35b600080600083815260200190815260200160002060009054906101000a900473ffffffffffffffffffffffffffffffffffffffff16905091905056fea265627a7a723158206a2895dbae65e16d3993f0cbc0a8a7296f91628ea47cae6f64372896ebe1992964736f6c63430005100032",
  "source": "pragma solidity ^0.5.0;\n\ncontract AddressStorage {\n    mapping(bytes32 => address) private addresses;\n\n    function getAddress(bytes32 _key) public view returns (address) {\n        return addresses[_key];\n    }\n\n    function _setAddress(bytes32 _key, address _value) internal {\n        addresses[_key] = _value;\n    }\n\n}\n",
  "sourcePath": "/Users/thepassivetrust/testing/moola/contracts/configuration/AddressStorage.sol",
  "compiler": {
    "name": "solc",
    "version": "0.5.16+commit.9c3226ce.Emscripten.clang"
  },
  "schemaVersion": "3.2.3",
  "updatedAt": "2020-09-07T17:33:37.254Z",
  "networkType": "ethereum",
  "devdoc": {
    "methods": {}
  },
  "userdoc": {
    "methods": {}
  }
}