{
  "contractName": "LendingPoolParametersProvider",
  "abi": [
    {
      "constant": false,
      "inputs": [
        {
          "internalType": "address",
          "name": "_addressesProvider",
          "type": "address"
        }
      ],
      "name": "initialize",
      "outputs": [],
      "payable": false,
      "stateMutability": "nonpayable",
      "type": "function"
    },
    {
      "constant": true,
      "inputs": [],
      "name": "getMaxStableRateBorrowSizePercent",
      "outputs": [
        {
          "internalType": "uint256",
          "name": "",
          "type": "uint256"
        }
      ],
      "payable": false,
      "stateMutability": "pure",
      "type": "function"
    },
    {
      "constant": true,
      "inputs": [],
      "name": "getRebalanceDownRateDelta",
      "outputs": [
        {
          "internalType": "uint256",
          "name": "",
          "type": "uint256"
        }
      ],
      "payable": false,
      "stateMutability": "pure",
      "type": "function"
    },
    {
      "constant": true,
      "inputs": [],
      "name": "getFlashLoanFeesInBips",
      "outputs": [
        {
          "internalType": "uint256",
          "name": "",
          "type": "uint256"
        },
        {
          "internalType": "uint256",
          "name": "",
          "type": "uint256"
        }
      ],
      "payable": false,
      "stateMutability": "pure",
      "type": "function"
    }
  ],
  "bytecode": "0x60806040526000805534801561001457600080fd5b5061028f806100246000396000f3fe608060405234801561001057600080fd5b506004361061004c5760003560e01c806346f4f8d114610051578063586feb401461006f578063c4d66de814610094578063d6b725ac146100d8575b600080fd5b6100596100f6565b6040518082815260200191505060405180910390f35b610077610109565b604051808381526020018281526020019250505060405180910390f35b6100d6600480360360208110156100aa57600080fd5b81019080803573ffffffffffffffffffffffffffffffffffffffff169060200190929190505050610119565b005b6100e0610209565b6040518082815260200191505060405180910390f35b60006aa56fa5b99019a5c8000000905090565b6000806023610bb8915091509091565b6000610123610212565b9050600160009054906101000a900460ff1680610144575061014361021b565b5b80610150575060005481115b6101a5576040517f08c379a000000000000000000000000000000000000000000000000000000000815260040180806020018281038252602e81526020018061022d602e913960400191505060405180910390fd5b6000600160009054906101000a900460ff1615905080156101e25760018060006101000a81548160ff021916908315150217905550816000819055505b8015610204576000600160006101000a81548160ff0219169083151502179055505b505050565b60006019905090565b60006001905090565b600080303b9050600081149150509056fe436f6e747261637420696e7374616e63652068617320616c7265616479206265656e20696e697469616c697a6564a265627a7a723158207f77ed2ef77b8c135775d9acdfa878b60c333c4999b4b71deee3e9cf38600f8c64736f6c63430005100032",
  "source": "pragma solidity ^0.5.0;\n\n\nimport \"../libraries/openzeppelin-upgradeability/VersionedInitializable.sol\";\nimport \"./UintStorage.sol\";\n\n/**\n* @title LendingPoolParametersProvider\n* @author Aave\n* @notice stores the configuration parameters of the Lending Pool contract\n**/\n\ncontract LendingPoolParametersProvider is VersionedInitializable {\n\n    uint256 private constant MAX_STABLE_RATE_BORROW_SIZE_PERCENT = 25;\n    uint256 private constant REBALANCE_DOWN_RATE_DELTA = (1e27)/5;\n    uint256 private constant FLASHLOAN_FEE_TOTAL = 35;\n    uint256 private constant FLASHLOAN_FEE_PROTOCOL = 3000;\n\n    uint256 constant private DATA_PROVIDER_REVISION = 0x1;\n\n    function getRevision() internal pure returns(uint256) {\n        return DATA_PROVIDER_REVISION;\n    }\n\n    /**\n    * @dev initializes the LendingPoolParametersProvider after it's added to the proxy\n    * @param _addressesProvider the address of the LendingPoolAddressesProvider\n    */\n    function initialize(address _addressesProvider) public initializer {\n    }\n    /**\n    * @dev returns the maximum stable rate borrow size, in percentage of the available liquidity.\n    **/\n    function getMaxStableRateBorrowSizePercent() external pure returns (uint256)  {\n        return MAX_STABLE_RATE_BORROW_SIZE_PERCENT;\n    }\n\n    /**\n    * @dev returns the delta between the current stable rate and the user stable rate at\n    *      which the borrow position of the user will be rebalanced (scaled down)\n    **/\n    function getRebalanceDownRateDelta() external pure returns (uint256) {\n        return REBALANCE_DOWN_RATE_DELTA;\n    }\n\n    /**\n    * @dev returns the fee applied to a flashloan and the portion to redirect to the protocol, in basis points.\n    **/\n    function getFlashLoanFeesInBips() external pure returns (uint256, uint256) {\n        return (FLASHLOAN_FEE_TOTAL, FLASHLOAN_FEE_PROTOCOL);\n    }\n}\n",
  "sourcePath": "/Users/thepassivetrust/testing/moola/contracts/configuration/LendingPoolParametersProvider.sol",
  "compiler": {
    "name": "solc",
    "version": "0.5.16+commit.9c3226ce.Emscripten.clang"
  },
  "schemaVersion": "3.2.3",
  "updatedAt": "2020-09-07T17:33:37.266Z",
  "networkType": "ethereum",
  "devdoc": {
    "author": "Aave",
    "methods": {
      "getFlashLoanFeesInBips()": {
        "details": "returns the fee applied to a flashloan and the portion to redirect to the protocol, in basis points.*"
      },
      "getMaxStableRateBorrowSizePercent()": {
        "details": "returns the maximum stable rate borrow size, in percentage of the available liquidity.*"
      },
      "getRebalanceDownRateDelta()": {
        "details": "returns the delta between the current stable rate and the user stable rate at     which the borrow position of the user will be rebalanced (scaled down)*"
      },
      "initialize(address)": {
        "details": "initializes the LendingPoolParametersProvider after it's added to the proxy",
        "params": {
          "_addressesProvider": "the address of the LendingPoolAddressesProvider"
        }
      }
    },
    "title": "LendingPoolParametersProvider"
  },
  "userdoc": {
    "methods": {},
    "notice": "stores the configuration parameters of the Lending Pool contract*"
  }
}