{
  "contractName": "MockAggregatorcUSD",
  "abi": [
    {
      "inputs": [
        {
          "internalType": "int256",
          "name": "_initialAnswer",
          "type": "int256"
        }
      ],
      "payable": false,
      "stateMutability": "nonpayable",
      "type": "constructor"
    },
    {
      "anonymous": false,
      "inputs": [
        {
          "indexed": true,
          "internalType": "int256",
          "name": "current",
          "type": "int256"
        },
        {
          "indexed": true,
          "internalType": "uint256",
          "name": "roundId",
          "type": "uint256"
        },
        {
          "indexed": false,
          "internalType": "uint256",
          "name": "timestamp",
          "type": "uint256"
        }
      ],
      "name": "AnswerUpdated",
      "type": "event"
    },
    {
      "constant": true,
      "inputs": [],
      "name": "latestAnswer",
      "outputs": [
        {
          "internalType": "int256",
          "name": "",
          "type": "int256"
        }
      ],
      "payable": false,
      "stateMutability": "view",
      "type": "function"
    }
  ],
  "bytecode": "0x608060405234801561001057600080fd5b5060405161011d38038061011d8339818101604052602081101561003357600080fd5b810190808051906020019092919050505080806000819055506000817f0559884fd3a460db3073b7fc896cc77986f16e378210ded43186175bf646fc5f426040518082815260200191505060405180910390a350506087806100966000396000f3fe6080604052348015600f57600080fd5b506004361060285760003560e01c806350d25bcd14602d575b600080fd5b60336049565b6040518082815260200191505060405180910390f35b6000805490509056fea265627a7a723158205824c174538af5e7e39a5c43442c0e5edb6ac7b5e29bbf001057678fd82903af64736f6c63430005100032",
  "source": "pragma solidity ^0.5.0;\n\nimport \"./MockAggregatorBase.sol\";\n\ncontract MockAggregatorcUSD is MockAggregatorBase {\n    constructor (int256 _initialAnswer) public MockAggregatorBase(_initialAnswer) {}\n}",
  "sourcePath": "/Users/thepassivetrust/testing/moola/contracts/mocks/oracle/CLAggregators/MockAggregatorcUSD.sol",
  "compiler": {
    "name": "solc",
    "version": "0.5.16+commit.9c3226ce.Emscripten.clang"
  },
  "schemaVersion": "3.2.3",
  "updatedAt": "2020-09-07T17:23:19.623Z",
  "devdoc": {
    "methods": {}
  },
  "userdoc": {
    "methods": {}
  }
}